{
  "_format": "hh-sol-artifact-1",
  "contractName": "Fake",
  "sourceName": "contracts/Fake.sol",
  "abi": [
    {
      "inputs": [],
      "stateMutability": "nonpayable",
      "type": "constructor"
    },
    {
      "anonymous": false,
      "inputs": [
        {
          "indexed": false,
          "internalType": "string",
          "name": "prd_id",
          "type": "string"
        },
        {
          "indexed": false,
          "internalType": "string",
          "name": "prd_name",
          "type": "string"
        },
        {
          "indexed": false,
          "internalType": "uint256",
          "name": "manufacturingDate",
          "type": "uint256"
        },
        {
          "indexed": false,
          "internalType": "uint256",
          "name": "expirationDate",
          "type": "uint256"
        },
        {
          "indexed": false,
          "internalType": "string",
          "name": "qrCode",
          "type": "string"
        }
      ],
      "name": "ProductUploaded",
      "type": "event"
    },
    {
      "anonymous": false,
      "inputs": [
        {
          "indexed": true,
          "internalType": "address",
          "name": "userAddress",
          "type": "address"
        },
        {
          "indexed": false,
          "internalType": "string",
          "name": "name",
          "type": "string"
        },
        {
          "indexed": false,
          "internalType": "enum Fake.UserRole",
          "name": "role",
          "type": "uint8"
        }
      ],
      "name": "UserAdded",
      "type": "event"
    },
    {
      "inputs": [
        {
          "internalType": "address",
          "name": "userAddress",
          "type": "address"
        },
        {
          "internalType": "string",
          "name": "name",
          "type": "string"
        },
        {
          "internalType": "string",
          "name": "password",
          "type": "string"
        },
        {
          "internalType": "enum Fake.UserRole",
          "name": "role",
          "type": "uint8"
        }
      ],
      "name": "addUser",
      "outputs": [],
      "stateMutability": "nonpayable",
      "type": "function"
    },
    {
      "inputs": [],
      "name": "admin",
      "outputs": [
        {
          "internalType": "address",
          "name": "",
          "type": "address"
        }
      ],
      "stateMutability": "view",
      "type": "function"
    },
    {
      "inputs": [
        {
          "internalType": "string",
          "name": "prd_id_or_qrCode",
          "type": "string"
        }
      ],
      "name": "isReal",
      "outputs": [
        {
          "internalType": "bool",
          "name": "",
          "type": "bool"
        },
        {
          "components": [
            {
              "internalType": "string",
              "name": "prd_id",
              "type": "string"
            },
            {
              "internalType": "string",
              "name": "prd_name",
              "type": "string"
            },
            {
              "internalType": "string",
              "name": "batch_no",
              "type": "string"
            },
            {
              "internalType": "uint256",
              "name": "manufacturingDate",
              "type": "uint256"
            },
            {
              "internalType": "uint256",
              "name": "expirationDate",
              "type": "uint256"
            }
          ],
          "internalType": "struct Fake.ProductInfo",
          "name": "",
          "type": "tuple"
        }
      ],
      "stateMutability": "view",
      "type": "function"
    },
    {
      "inputs": [
        {
          "internalType": "string",
          "name": "password",
          "type": "string"
        }
      ],
      "name": "login",
      "outputs": [
        {
          "internalType": "bool",
          "name": "success",
          "type": "bool"
        }
      ],
      "stateMutability": "view",
      "type": "function"
    },
    {
      "inputs": [
        {
          "internalType": "uint256",
          "name": "",
          "type": "uint256"
        }
      ],
      "name": "productIds",
      "outputs": [
        {
          "internalType": "string",
          "name": "",
          "type": "string"
        }
      ],
      "stateMutability": "view",
      "type": "function"
    },
    {
      "inputs": [
        {
          "internalType": "string",
          "name": "",
          "type": "string"
        }
      ],
      "name": "products",
      "outputs": [
        {
          "internalType": "string",
          "name": "prd_name",
          "type": "string"
        },
        {
          "internalType": "string",
          "name": "prd_id",
          "type": "string"
        },
        {
          "internalType": "string",
          "name": "batch_no",
          "type": "string"
        },
        {
          "internalType": "uint256",
          "name": "manufacturingDate",
          "type": "uint256"
        },
        {
          "internalType": "uint256",
          "name": "expirationDate",
          "type": "uint256"
        },
        {
          "internalType": "string",
          "name": "qrCode",
          "type": "string"
        }
      ],
      "stateMutability": "view",
      "type": "function"
    },
    {
      "inputs": [
        {
          "internalType": "string",
          "name": "prd_id",
          "type": "string"
        },
        {
          "internalType": "string",
          "name": "prd_name",
          "type": "string"
        },
        {
          "internalType": "string",
          "name": "batch_no",
          "type": "string"
        },
        {
          "internalType": "string",
          "name": "qrCode",
          "type": "string"
        }
      ],
      "name": "uploadProduct",
      "outputs": [],
      "stateMutability": "nonpayable",
      "type": "function"
    },
    {
      "inputs": [
        {
          "internalType": "address",
          "name": "",
          "type": "address"
        }
      ],
      "name": "users",
      "outputs": [
        {
          "internalType": "address",
          "name": "userAddress",
          "type": "address"
        },
        {
          "internalType": "string",
          "name": "name",
          "type": "string"
        },
        {
          "internalType": "string",
          "name": "password",
          "type": "string"
        },
        {
          "internalType": "enum Fake.UserRole",
          "name": "role",
          "type": "uint8"
        }
      ],
      "stateMutability": "view",
      "type": "function"
    }
  ],
  "bytecode": "0x60806040526001805534801561001457600080fd5b50336000806101000a81548173ffffffffffffffffffffffffffffffffffffffff021916908373ffffffffffffffffffffffffffffffffffffffff16021790555061228d806100646000396000f3fe608060405234801561001057600080fd5b50600436106100885760003560e01c8063a87430ba1161005b578063a87430ba1461013f578063aa6baabd14610172578063cb51bba91461018e578063f851a440146101be57610088565b80630186a4231461008d5780633a7d280c146100c25780638943a5a0146100f2578063916d9f8f1461010e575b600080fd5b6100a760048036038101906100a29190611554565b6101dc565b6040516100b996959493929190611635565b60405180910390f35b6100dc60048036038101906100d79190611554565b61044e565b6040516100e991906116cd565b60405180910390f35b61010c600480360381019061010791906116e8565b61057a565b005b61012860048036038101906101239190611554565b61077f565b60405161013692919061189c565b60405180910390f35b6101596004803603810190610154919061192a565b610b32565b60405161016994939291906119dd565b60405180910390f35b61018c60048036038101906101879190611a55565b610c9f565b005b6101a860048036038101906101a39190611b20565b6112fb565b6040516101b59190611b4d565b60405180910390f35b6101c66113a7565b6040516101d39190611b6f565b60405180910390f35b60048180516020810182018051848252602083016020850120818352809550505050505060009150905080600001805461021590611bb9565b80601f016020809104026020016040519081016040528092919081815260200182805461024190611bb9565b801561028e5780601f106102635761010080835404028352916020019161028e565b820191906000526020600020905b81548152906001019060200180831161027157829003601f168201915b5050505050908060010180546102a390611bb9565b80601f01602080910402602001604051908101604052809291908181526020018280546102cf90611bb9565b801561031c5780601f106102f15761010080835404028352916020019161031c565b820191906000526020600020905b8154815290600101906020018083116102ff57829003601f168201915b50505050509080600201805461033190611bb9565b80601f016020809104026020016040519081016040528092919081815260200182805461035d90611bb9565b80156103aa5780601f1061037f576101008083540402835291602001916103aa565b820191906000526020600020905b81548152906001019060200180831161038d57829003601f168201915b5050505050908060030154908060040154908060050180546103cb90611bb9565b80601f01602080910402602001604051908101604052809291908181526020018280546103f790611bb9565b80156104445780601f1061041957610100808354040283529160200191610444565b820191906000526020600020905b81548152906001019060200180831161042757829003601f168201915b5050505050905086565b600080600281111561046357610462611966565b5b600360003373ffffffffffffffffffffffffffffffffffffffff1673ffffffffffffffffffffffffffffffffffffffff16815260200190815260200160002060030160009054906101000a900460ff1660028111156104c5576104c4611966565b5b036104d35760009050610575565b816040516020016104e49190611c26565b60405160208183030381529060405280519060200120600360003373ffffffffffffffffffffffffffffffffffffffff1673ffffffffffffffffffffffffffffffffffffffff16815260200190815260200160002060020160405160200161054c9190611cd5565b60405160208183030381529060405280519060200120036105705760019050610575565b600090505b919050565b6001600281111561058e5761058d611966565b5b600360003373ffffffffffffffffffffffffffffffffffffffff1673ffffffffffffffffffffffffffffffffffffffff16815260200190815260200160002060030160009054906101000a900460ff1660028111156105f0576105ef611966565b5b14610630576040517f08c379a000000000000000000000000000000000000000000000000000000000815260040161062790611d5e565b60405180910390fd5b600042905060006301e13380426106479190611dad565b90506040518060c00160405280868152602001878152602001858152602001838152602001828152602001848152506004876040516106869190611c26565b908152602001604051809103902060008201518160000190816106a99190611f78565b5060208201518160010190816106bf9190611f78565b5060408201518160020190816106d59190611f78565b50606082015181600301556080820151816004015560a08201518160050190816106ff9190611f78565b509050506002869080600181540180825580915050600190039060005260206000200160009091909190915090816107379190611f78565b507f63560b43a0a144f24d30f9a3329ce14d99cc9fc1464dd877b8d143c6122f8563868684848760405161076f95949392919061204a565b60405180910390a1505050505050565b60006107896113cb565b60005b600280549050811015610acf57836040516020016107aa9190611c26565b60405160208183030381529060405280519060200120600282815481106107d4576107d36120b2565b5b906000526020600020016040516020016107ee9190611cd5565b60405160208183030381529060405280519060200120148061089857508360405160200161081c9190611c26565b60405160208183030381529060405280519060200120600460028381548110610848576108476120b2565b5b9060005260206000200160405161085f9190611cd5565b90815260200160405180910390206005016040516020016108809190611cd5565b60405160208183030381529060405280519060200120145b15610abc5760006004600283815481106108b5576108b46120b2565b5b906000526020600020016040516108cc9190611cd5565b9081526020016040518091039020905060016040518060a001604052808360010180546108f890611bb9565b80601f016020809104026020016040519081016040528092919081815260200182805461092490611bb9565b80156109715780601f1061094657610100808354040283529160200191610971565b820191906000526020600020905b81548152906001019060200180831161095457829003601f168201915b5050505050815260200183600001805461098a90611bb9565b80601f01602080910402602001604051908101604052809291908181526020018280546109b690611bb9565b8015610a035780601f106109d857610100808354040283529160200191610a03565b820191906000526020600020905b8154815290600101906020018083116109e657829003601f168201915b50505050508152602001836002018054610a1c90611bb9565b80601f0160208091040260200160405190810160405280929190818152602001828054610a4890611bb9565b8015610a955780601f10610a6a57610100808354040283529160200191610a95565b820191906000526020600020905b815481529060010190602001808311610a7857829003601f168201915b50505050508152602001836003015481526020018360040154815250935093505050610b2d565b8080610ac7906120e1565b91505061078c565b5060006040518060a00160405280604051806020016040528060008152508152602001604051806020016040528060008152508152602001604051806020016040528060008152508152602001600081526020016000815250915091505b915091565b60036020528060005260406000206000915090508060000160009054906101000a900473ffffffffffffffffffffffffffffffffffffffff1690806001018054610b7b90611bb9565b80601f0160208091040260200160405190810160405280929190818152602001828054610ba790611bb9565b8015610bf45780601f10610bc957610100808354040283529160200191610bf4565b820191906000526020600020905b815481529060010190602001808311610bd757829003601f168201915b505050505090806002018054610c0990611bb9565b80601f0160208091040260200160405190810160405280929190818152602001828054610c3590611bb9565b8015610c825780601f10610c5757610100808354040283529160200191610c82565b820191906000526020600020905b815481529060010190602001808311610c6557829003601f168201915b5050505050908060030160009054906101000a900460ff16905084565b600280811115610cb257610cb1611966565b5b816002811115610cc557610cc4611966565b5b03610f815760006002811115610cde57610cdd611966565b5b600360003373ffffffffffffffffffffffffffffffffffffffff1673ffffffffffffffffffffffffffffffffffffffff16815260200190815260200160002060030160009054906101000a900460ff166002811115610d4057610d3f611966565b5b1480610dbf575060016002811115610d5b57610d5a611966565b5b600360003373ffffffffffffffffffffffffffffffffffffffff1673ffffffffffffffffffffffffffffffffffffffff16815260200190815260200160002060030160009054906101000a900460ff166002811115610dbd57610dbc611966565b5b145b610dfe576040517f08c379a0000000000000000000000000000000000000000000000000000000008152600401610df590612175565b60405180910390fd5b60405180608001604052803373ffffffffffffffffffffffffffffffffffffffff168152602001848152602001838152602001826002811115610e4457610e43611966565b5b815250600360003373ffffffffffffffffffffffffffffffffffffffff1673ffffffffffffffffffffffffffffffffffffffff16815260200190815260200160002060008201518160000160006101000a81548173ffffffffffffffffffffffffffffffffffffffff021916908373ffffffffffffffffffffffffffffffffffffffff1602179055506020820151816001019081610ee29190611f78565b506040820151816002019081610ef89190611f78565b5060608201518160030160006101000a81548160ff02191690836002811115610f2457610f23611966565b5b02179055509050503373ffffffffffffffffffffffffffffffffffffffff167f8897d4c16f6b907647cc92f3b2f80418ac81581b8e74f9dda595d3910b44c8628483604051610f74929190612195565b60405180910390a26112f5565b60016002811115610f9557610f94611966565b5b816002811115610fa857610fa7611966565b5b036112f45760008054906101000a900473ffffffffffffffffffffffffffffffffffffffff1673ffffffffffffffffffffffffffffffffffffffff163373ffffffffffffffffffffffffffffffffffffffff161461103b576040517f08c379a000000000000000000000000000000000000000000000000000000000815260040161103290612237565b60405180910390fd5b6000600281111561104f5761104e611966565b5b600360003373ffffffffffffffffffffffffffffffffffffffff1673ffffffffffffffffffffffffffffffffffffffff16815260200190815260200160002060030160009054906101000a900460ff1660028111156110b1576110b0611966565b5b14806111305750600160028111156110cc576110cb611966565b5b600360003373ffffffffffffffffffffffffffffffffffffffff1673ffffffffffffffffffffffffffffffffffffffff16815260200190815260200160002060030160009054906101000a900460ff16600281111561112e5761112d611966565b5b145b61116f576040517f08c379a000000000000000000000000000000000000000000000000000000000815260040161116690612175565b60405180910390fd5b600084905060405180608001604052808273ffffffffffffffffffffffffffffffffffffffff1681526020018581526020018481526020018360028111156111ba576111b9611966565b5b815250600360008373ffffffffffffffffffffffffffffffffffffffff1673ffffffffffffffffffffffffffffffffffffffff16815260200190815260200160002060008201518160000160006101000a81548173ffffffffffffffffffffffffffffffffffffffff021916908373ffffffffffffffffffffffffffffffffffffffff16021790555060208201518160010190816112589190611f78565b50604082015181600201908161126e9190611f78565b5060608201518160030160006101000a81548160ff0219169083600281111561129a57611299611966565b5b02179055509050508073ffffffffffffffffffffffffffffffffffffffff167f8897d4c16f6b907647cc92f3b2f80418ac81581b8e74f9dda595d3910b44c86285846040516112ea929190612195565b60405180910390a2505b5b50505050565b6002818154811061130b57600080fd5b90600052602060002001600091509050805461132690611bb9565b80601f016020809104026020016040519081016040528092919081815260200182805461135290611bb9565b801561139f5780601f106113745761010080835404028352916020019161139f565b820191906000526020600020905b81548152906001019060200180831161138257829003601f168201915b505050505081565b60008054906101000a900473ffffffffffffffffffffffffffffffffffffffff1681565b6040518060a0016040528060608152602001606081526020016060815260200160008152602001600081525090565b6000604051905090565b600080fd5b600080fd5b600080fd5b600080fd5b6000601f19601f8301169050919050565b7f4e487b7100000000000000000000000000000000000000000000000000000000600052604160045260246000fd5b61146182611418565b810181811067ffffffffffffffff821117156114805761147f611429565b5b80604052505050565b60006114936113fa565b905061149f8282611458565b919050565b600067ffffffffffffffff8211156114bf576114be611429565b5b6114c882611418565b9050602081019050919050565b82818337600083830152505050565b60006114f76114f2846114a4565b611489565b90508281526020810184848401111561151357611512611413565b5b61151e8482856114d5565b509392505050565b600082601f83011261153b5761153a61140e565b5b813561154b8482602086016114e4565b91505092915050565b60006020828403121561156a57611569611404565b5b600082013567ffffffffffffffff81111561158857611587611409565b5b61159484828501611526565b91505092915050565b600081519050919050565b600082825260208201905092915050565b60005b838110156115d75780820151818401526020810190506115bc565b60008484015250505050565b60006115ee8261159d565b6115f881856115a8565b93506116088185602086016115b9565b61161181611418565b840191505092915050565b6000819050919050565b61162f8161161c565b82525050565b600060c082019050818103600083015261164f81896115e3565b9050818103602083015261166381886115e3565b9050818103604083015261167781876115e3565b90506116866060830186611626565b6116936080830185611626565b81810360a08301526116a581846115e3565b9050979650505050505050565b60008115159050919050565b6116c7816116b2565b82525050565b60006020820190506116e260008301846116be565b92915050565b6000806000806080858703121561170257611701611404565b5b600085013567ffffffffffffffff8111156117205761171f611409565b5b61172c87828801611526565b945050602085013567ffffffffffffffff81111561174d5761174c611409565b5b61175987828801611526565b935050604085013567ffffffffffffffff81111561177a57611779611409565b5b61178687828801611526565b925050606085013567ffffffffffffffff8111156117a7576117a6611409565b5b6117b387828801611526565b91505092959194509250565b600082825260208201905092915050565b60006117db8261159d565b6117e581856117bf565b93506117f58185602086016115b9565b6117fe81611418565b840191505092915050565b6118128161161c565b82525050565b600060a083016000830151848203600086015261183582826117d0565b9150506020830151848203602086015261184f82826117d0565b9150506040830151848203604086015261186982826117d0565b915050606083015161187e6060860182611809565b5060808301516118916080860182611809565b508091505092915050565b60006040820190506118b160008301856116be565b81810360208301526118c38184611818565b90509392505050565b600073ffffffffffffffffffffffffffffffffffffffff82169050919050565b60006118f7826118cc565b9050919050565b611907816118ec565b811461191257600080fd5b50565b600081359050611924816118fe565b92915050565b6000602082840312156119405761193f611404565b5b600061194e84828501611915565b91505092915050565b611960816118ec565b82525050565b7f4e487b7100000000000000000000000000000000000000000000000000000000600052602160045260246000fd5b600381106119a6576119a5611966565b5b50565b60008190506119b782611995565b919050565b60006119c7826119a9565b9050919050565b6119d7816119bc565b82525050565b60006080820190506119f26000830187611957565b8181036020830152611a0481866115e3565b90508181036040830152611a1881856115e3565b9050611a2760608301846119ce565b95945050505050565b60038110611a3d57600080fd5b50565b600081359050611a4f81611a30565b92915050565b60008060008060808587031215611a6f57611a6e611404565b5b6000611a7d87828801611915565b945050602085013567ffffffffffffffff811115611a9e57611a9d611409565b5b611aaa87828801611526565b935050604085013567ffffffffffffffff811115611acb57611aca611409565b5b611ad787828801611526565b9250506060611ae887828801611a40565b91505092959194509250565b611afd8161161c565b8114611b0857600080fd5b50565b600081359050611b1a81611af4565b92915050565b600060208284031215611b3657611b35611404565b5b6000611b4484828501611b0b565b91505092915050565b60006020820190508181036000830152611b6781846115e3565b905092915050565b6000602082019050611b846000830184611957565b92915050565b7f4e487b7100000000000000000000000000000000000000000000000000000000600052602260045260246000fd5b60006002820490506001821680611bd157607f821691505b602082108103611be457611be3611b8a565b5b50919050565b600081905092915050565b6000611c008261159d565b611c0a8185611bea565b9350611c1a8185602086016115b9565b80840191505092915050565b6000611c328284611bf5565b915081905092915050565b60008190508160005260206000209050919050565b60008154611c5f81611bb9565b611c698186611bea565b94506001821660008114611c845760018114611c9957611ccc565b60ff1983168652811515820286019350611ccc565b611ca285611c3d565b60005b83811015611cc457815481890152600182019150602081019050611ca5565b838801955050505b50505092915050565b6000611ce18284611c52565b915081905092915050565b7f4f6e6c79206d616e7566616374757265722063616e20706572666f726d20746860008201527f697320616374696f6e0000000000000000000000000000000000000000000000602082015250565b6000611d486029836115a8565b9150611d5382611cec565b604082019050919050565b60006020820190508181036000830152611d7781611d3b565b9050919050565b7f4e487b7100000000000000000000000000000000000000000000000000000000600052601160045260246000fd5b6000611db88261161c565b9150611dc38361161c565b9250828201905080821115611ddb57611dda611d7e565b5b92915050565b60006020601f8301049050919050565b600082821b905092915050565b600060088302611e2e7fffffffffffffffffffffffffffffffffffffffffffffffffffffffffffffffff82611df1565b611e388683611df1565b95508019841693508086168417925050509392505050565b6000819050919050565b6000611e75611e70611e6b8461161c565b611e50565b61161c565b9050919050565b6000819050919050565b611e8f83611e5a565b611ea3611e9b82611e7c565b848454611dfe565b825550505050565b600090565b611eb8611eab565b611ec3818484611e86565b505050565b5b81811015611ee757611edc600082611eb0565b600181019050611ec9565b5050565b601f821115611f2c57611efd81611c3d565b611f0684611de1565b81016020851015611f15578190505b611f29611f2185611de1565b830182611ec8565b50505b505050565b600082821c905092915050565b6000611f4f60001984600802611f31565b1980831691505092915050565b6000611f688383611f3e565b9150826002028217905092915050565b611f818261159d565b67ffffffffffffffff811115611f9a57611f99611429565b5b611fa48254611bb9565b611faf828285611eeb565b600060209050601f831160018114611fe25760008415611fd0578287015190505b611fda8582611f5c565b865550612042565b601f198416611ff086611c3d565b60005b8281101561201857848901518255600182019150602085019450602081019050611ff3565b868310156120355784890151612031601f891682611f3e565b8355505b6001600288020188555050505b505050505050565b600060a082019050818103600083015261206481886115e3565b9050818103602083015261207881876115e3565b90506120876040830186611626565b6120946060830185611626565b81810360808301526120a681846115e3565b90509695505050505050565b7f4e487b7100000000000000000000000000000000000000000000000000000000600052603260045260246000fd5b60006120ec8261161c565b91507fffffffffffffffffffffffffffffffffffffffffffffffffffffffffffffffff820361211e5761211d611d7e565b5b600182019050919050565b7f5573657220616c72656164792065786973747300000000000000000000000000600082015250565b600061215f6013836115a8565b915061216a82612129565b602082019050919050565b6000602082019050818103600083015261218e81612152565b9050919050565b600060408201905081810360008301526121af81856115e3565b90506121be60208301846119ce565b9392505050565b7f4f6e6c792061646d696e2063616e206164642075736572732077697468204d6160008201527f6e75666163747572657220726f6c650000000000000000000000000000000000602082015250565b6000612221602f836115a8565b915061222c826121c5565b604082019050919050565b6000602082019050818103600083015261225081612214565b905091905056fea2646970667358221220c6177281da73f07bc15f814525705c8b737abb2e83082d171d324cb85973c47064736f6c63430008110033",
  "linkReferences": {},
  "deployedLinkReferences": {}
}